:040000005BEF00F0C2
:10000800FACF02F0FBCF03F0E9CF04F0EACF05F016
:10001800E1CF06F0E2CF07F0D9CF08F0DACF09F048
:10002800F3CF0AF0F4CF0BF0F6CF0CF0F7CF0DF0CA
:10003800F8CF0EF0F5CF0FF0F2A201D001D01AD010
:10004800000EF66E000EF76E180EF86E0800F5CF6B
:1000580024F02350010D1D0EF324D96E000EF42058
:10006800DA6E24C0DFFF016E010E256E0150232ACF
:10007800F29200D00FC0F5FF0EC0F8FF0DC0F7FFD9
:100088000CC0F6FF0BC0F4FF0AC0F3FF09C0DAFF8B
:1000980008C0D9FF07C0E2FF06C0E1FF05C0EAFFBC
:1000A80004C0E9FF03C0FBFF02C0FAFF110048EFDC
:1000B80004F01BEC04F0B2EC01F051EC04F0196E02
:1000C800000E256E1950196E000E236E1950196E08
:1000D800000E1B6E1950060E1B6001D001D002D015
:1000E80012D011D01B50010D1D0EF324D96E000E35
:1000F800F420DA6E000EDF6E1B2A060E1B6001D09C
:1001080001D0F0D700D0010E116EF40E106ED4ECB1
:1001180003F03CEC04F000D02504D8A401D001D0B1
:10012800FBD740EC02F02F0E266401D001D006D098
:10013800390E266401D001D008D000D026503D0ADF
:10014800D8A401D001D00BD000D0020EF66E000E5C
:10015800F76E1A0EF86E26C0F5FF0C0000D02604C4
:10016800D8A401D001D00AD0000EF66E000EF76EAA
:100178001A0EF86E100EF56E0C0000D02650020A0A
:10018800D8A401D001D00AD0000EF66E000EF76E8A
:100198001A0EF86E140EF56E0C0000D02650030AE5
:1001A800D8A401D001D027D0000EF66E000EF76E4D
:1001B8001A0EF86E010EF56E0C0001D000D0000E7C
:1001C800F66E000EF76E1A0EF86E0800F5CF19F0ED
:1001D80019BE01D001D0F3D700D0000EF66E000E84
:1001E800F76E1A0EF86E020EF56E0C00196E000E00
:1001F800236E195000D02650040AD8A401D001D08B
:1002080096D02350060AD8A401D001D040D0196E48
:10021800000E236E19501D500A0DF3501E241A6E3D
:100228002038F00B21141C6E1AC010F01CC011F0FD
:1002380004EC04F020C010F0C4EC02F0206E020EB2
:10024800F66E000EF76E1A0EF86E20C0F5FF0C0061
:1002580001D000D0000EF66E000EF76E1A0EF86E82
:100268000800F5CF19F019BE01D001D0F3D700D09E
:1002780021C010F0C4EC02F0216E020EF66E000EE2
:10028800F76E1A0EF86E21C0F5FF0C0000D023504F
:10029800030AD8A401D001D04AD0196E000E236EEB
:1002A80019501D500A0DF3501E241A6E1AC010F072
:1002B8002FEC04F01C6E1CC010F0116A000E136EB7
:1002C8000A0E126E22EC03F0020EF66E000EF76EA6
:1002D8001A0EF86E10C0F5FF0C000B000E0001D0CE
:1002E80000D0000EF66E000EF76E1A0EF86E0800BB
:1002F800F5CF19F019BE01D001D0F3D700D01CC03A
:1003080010F0116A000E136E0A0E126E80EC03F0E4
:10031800020EF66E000EF76E1A0EF86E10C0F5FF9C
:100328000C000B000E0003D002D001D000D0000E4C
:10033800F66E000EF76E1A0EF86E0800F5CF19F07B
:1003480019BE01D001D0F3D700D0196E000E256E6A
:100358001950E2D6E1D6E0D65BEF00F0000E116E40
:10036800640E106ED4EC03F0000EF66E000EF76EFD
:100378001A0EF86E380EF56E0C00000E116E050E92
:10038800106ED4EC03F0000EF66E000EF76E1A0E27
:10039800F86E380EF56E0C00000E116E010E106E20
:1003A800D4EC03F0000EF66E000EF76E1A0EF86E1F
:1003B800380EF56E0C00000E116E010E106ED4ECA6
:1003C80003F0000EF66E000EF76E1A0EF86E380E79
:1003D800F56E0C00000E116E010E106ED4EC03F0D9
:1003E800000EF66E000EF76E1A0EF86E140EF56E0D
:1003F8000C00000E116E010E106ED4EC03F0000E0E
:10040800F66E000EF76E1A0EF86E0E0EF56E0C00F4
:10041800000E116E010E106ED4EC03F0000EF66E95
:10042800000EF76E1A0EF86E060EF56E0C00000E32
:10043800116E010E106ED4EC03F0000EF66E000E75
:10044800F76E1A0EF86E020EF56E0C00000E116EA5
:10045800020E106ED4EC03F0000EF66E000EF76E6E
:100468001A0EF86E010EF56E0C00000E116E020EDB
:10047800106ED4EC03F0120024500F0B246E50D0F1
:10048800106E300E266E10507AD0106E310E266E19
:10049800105075D0106E320E266E105070D0106E3F
:1004A800330E266E10506BD0106E340E266E105020
:1004B80066D0106E350E266E105061D0106E360E56
:1004C800266E10505CD0106E370E266E105057D026
:1004D800106E380E266E105052D0106E390E266EE1
:1004E80010504DD0106E3D0E266E105048D0106E34
:1004F800010E266E105043D0106E020E266E10505C
:100508003ED0106E030E266E105039D0106E040EB9
:10051800266E105034D0106E780E266E10502FD0E4
:100528002450000AD8B4ACD7010AD8B4AED7030A0D
:10053800D8B4B0D7010AD8B4B2D7070AD8B4B4D758
:10054800010AD8B4B6D7030AD8B4B8D7010AD8B4C0
:10055800BAD70F0AD8B4BCD7010AD8B4BED7020A92
:10056800D8B4C0D7070AD8B4C2D7010AD8B4C4D7F8
:10057800030AD8B4C6D7010AD8B4C8D7CCD7120052
:1005880010500F0B106E37D0116E300E126E1150C6
:1005980052D0116E310E126E11504DD0116E320EB6
:1005A800126E115048D0116E330E126E115043D096
:1005B800116E340E126E11503ED0116E350E126E41
:1005C800115039D0116E360E126E115034D0116E92
:1005D800370E126E11502FD0116E380E126E115048
:1005E8002AD0116E390E126E115025D0116E780E68
:1005F800266E115020D01050000AD8B4C5D7010A71
:10060800D8B4C7D7030AD8B4C9D7010AD8B4CBD746
:10061800070AD8B4CDD7010AD8B4CFD7030AD8B4BB
:10062800D1D7010AD8B4D3D70F0AD8B4D5D7010A7D
:10063800D8B4D7D7DBD7125000D01200146E000EF2
:10064800166E145013AE01D001D009D0126C131ECF
:10065800D8B0132A146E010E166E145000D011AEC5
:1006680001D001D007D0106C111ED8B0112A010E8C
:10067800161A00D0000E186E000E176E13501210C6
:10068800D8B401D001D028D0146E010E156E1450C4
:1006980005D0D89012361336152A00D013AE01D0E3
:1006A80001D0F7D701D000D0D8901736183612509D
:1006B800105C13501158D8A001D001D006D01250A8
:1006C800105E1350115A178000D0D890133212328E
:1006D800152EEAD701D000D01650D8B401D001D0D9
:1006E80005D0176C181ED8B0182A00D017C010F003
:1006F80018C011F000D01200146E000E166E1450BF
:1007080011AE01D001D009D0106C111ED8B0112A39
:10071800146E010E166E145000D013AE01D001D025
:1007280005D0126C131ED8B0132A00D01350121023
:10073800D8B401D001D024D0146E010E156E145017
:1007480005D0D89012361336152A00D013AE01D032
:1007580001D0F7D701D000D01250105C13501158B7
:10076800D8A001D001D005D01250105E1350115AF4
:1007780000D0D89013321232152EEED701D000D007
:100788001650D8B401D001D005D0106C111ED8B0C5
:10079800112A00D010C010F011C011F000D01200C2
:1007A800000E146E000E136E0AD0040E126E950E13
:1007B800E82EFED7122EFCD700D0134A142A105068
:1007C800135C11501458D8A001D001D0EED700D036
:1007D8001200000E116E0A0E106ED4EC03F001D058
:1007E80000D0000EF66E000EF76E1A0EF86E0800B6
:1007F800F5CF15F015BE01D001D0F3D700D0120007
:10080800000E636E10C062FF7F9E7F9C11C061FF67
:100818007F84F29E550E7E6EAA0E7E6E7F8200D079
:100828007FB201D001D0FCD7F28E7F941200A00EC7
:100838000F010F01266F0F010F01269F000E0F01F8
:100848000F01256F000E0F010F01246F000E0F011D
:100858000F01236F1200000E636E10C062FF7F9EAF
:100868007F9C7F8061CF11F0126A115000D0120076
:10087800000EF66E000EF76E1A0EF86E010EF56E8B
:100888000C00EDEC03F0120000EE1DF00A0EEE6A0B
:10089800E806FDE100015DEF00F0F28EF288F292C9
:0208A80012003C
:020000040020DA
:08000000FFFFFFFFFFFFFFFF00
:020000040030CA
:0E0000001D036100018B81FFFFC0FFE0FF4088
:00000001FF
